:020000040020DA
:100000000000082075042000C5042000C54720001A
:10001000CB472000D1472000D74720000000000038
:10002000000000000000000000000000C5042000E7
:10003000C504200000000000C5042000C504200005
:10004000C5042000C5042000C5042000C50420000C
:10005000C5042000C5042000C5042000C5042000FC
:10006000C5042000C5042000C5042000A91E2000EE
:10007000B51E2000C11E2000CD1E2000D91E20006C
:10008000E51E2000F11E2000C50420009D08200070
:1000900091082000C5042000A1082000C50420000C
:1000A000C5042000C5042000C5042000C5042000AC
:1000B000C5042000C5042000C5042000C50420009C
:1000C000C5042000C5042000C50420009D1C20009C
:1000D000A91C2000C5042000C5042000C504200080
:1000E000C5042000C5042000C5042000C50420006C
:1000F000C5042000C5042000C5042000FD1E20000A
:10010000C5042000C5042000C5042000B51C200043
:10011000C5042000C5042000C5042000C50420003B
:10012000091F2000151F2000211F20002D1F200067
:10013000391F2000C5042000C5042000B10820009C
:10014000A5082000C5042000B5082000C504200033
:10015000451F2000511F20005D1F2000C504200006
:10016000C5042000C5042000C5042000C5042000EB
:10017000C5042000C5042000C504200000000000C4
:10018000C5042000C5042000C5042000C5042000CB
:10019000C11C2000CD1C2000D91C2000C50420005B
:1001A000C5042000C5042000C5042000C5042000AB
:1001B000C5042000C5042000C5042000C50420009B
:1001C000C5042000C504200000000000C504200074
:1001D000C5042000C5042000C5042000C50420007B
:1001E000C5082000B9082000C5042000C908200067
:1001F000C5042000C50420000348044B834202D0FC
:10020000034B03B11847704780040020800400208E
:10021000000000000548064B1B1AD90F01EBA30193
:10022000491002D0034B03B11847704780040020E7
:10023000800400200000000010B5064C237843B96C
:10024000FFF7DAFF044B13B10448AFF3008001233A
:10025000237010BD8004002000000000BC9320002B
:1002600008B5054B1BB105490548AFF30080BDE853
:100270000840FFF7CFBF00BF00000000840400204B
:10028000BC932000A3F5803A704700BF174B002BAA
:1002900008BF134B9D46FFF7F5FF00218B460F4625
:1002A0001348144A121A07F023F90E4B002B00D002
:1002B00098470D4B002B00D09847002000210400E8
:1002C0000D000D48002802D00C4805F01FFC07F077
:1002D00073F92000290005F061FE05F0EFFD00BF75
:1002E00000000800000000004D5F20000000082012
:1002F00080040020D01700200D5B200000000000CB
:100300002D4B00211A6C42F0805230B5B9B01A64FE
:100310001B6C0446012502A803F080530093009B48
:10032000264B1A6842F440421A601B6803F44043AB
:100330000193019BCDE9025102F050FA002C4FF0DD
:1003400002044FF0040114BF4FF4A0234FF4803394
:1003500007A8079508934FF480031194CDE90D4346
:10036000D823CDE90F130923CDE9123402F044F864
:1003700010B1002039B030BD02F006F80028F8D1E5
:100380000F234FF4A0520490072102A8CDE90234B4
:100390004FF48053CDE9052302F020FA0028E8D17C
:1003A0004FF40013339014A8149302F043FBB0FAF7
:1003B00080F04009DEE700BF0038024000700040D6
:1003C000244B1A6C42F0805270B5B8B01A641B6CA2
:1003D0000025012602A803F0805329460224019338
:1003E000019BCDE9026502F0F9F91023082107A865
:1003F0000B93D82307940A9608951194CDE90F130F
:100400000923CDE90D45CDE9123401F0F5FF10B116
:10041000002038B070BD01F0B7FF0028F8D10F23DD
:100420004FF4A0520490072102A8CDE902344FF402
:100430008053CDE9052302F0D1F90028E8D14FF42B
:100440000013339014A8149302F0F4FAB0FA80F079
:100450004009DEE70038024008B50120FFF750FFF1
:1004600028B9FFF7ADFF10B9014805F08FF908BDB5
:100470009C842000DFF834D0002103E00C4B5B5853
:10048000435004310B480C4B42189A42F6D30B4AA6
:1004900002E0002342F8043B094B9A42F9D301F0F1
:1004A00063FDFFF7F3FE704770470000000008206F
:1004B000C8932000F802002080040020800400205F
:1004C000D0170020FEE7000070B501F0C1F9041E4E
:1004D00032DB1A4E56F8240000282DD08423184D04
:1004E0006343EB58DA69110609D5DA69120606D5B5
:1004F0001B681B0603D5134B01211B6898478423F7
:100500006343EB58DA6991060BD5DA69920608D590
:100510001B68980605D50B4B002156F824001B6874
:10052000984784235C432B59DA69110704D5DA69AB
:10053000120701D508221A6270BD00BFC008002052
:10054000A00400209C0400200148FFF7BDBF00BFAD
:10055000007C00400148FFF7B7BF00BF00780040B3
:100560000148FFF7B1BF00BF001401400148FFF789
:10057000ABBF00BF005000400148FFF7A5BF00BF60
:10058000004C00400148FFF79FBF00BF00480040FB
:100590000148FFF799BF00BF004400400148FFF742
:1005A00093BF00BF001001400123410900F01F006C
:1005B000024A834042F82130704700BF00E100E06A
:1005C0004309012200F01F0004492033824041F812
:1005D0002320BFF34F8FBFF36F8F704700E100E020
:1005E000034B19604168034B43F82120704700BF5B
:1005F0009C040020C008002030B4D0E90034344806
:10060000834249D02BD8A0F5305083423ED020D829
:10061000A0F50060834233D000F58060834232D081
:100620000023184684256C432A4D2C59002A39D0C2
:100630002268002933D142F02002226000F110012B
:10064000254A926842F82130BFF34F8F30BCFFF744
:10065000ABBF22488342E3D1214B3520E2E721485A
:1006600083420AD000F58060834212D0A0F5184082
:100670008342D5D11C4B5320D4E71C4B2520D1E716
:100680001B4B2620CEE71B4B2720CBE71A4B3420F1
:10069000C8E71A4B4720C5E7194B5220C2E742F082
:1006A0008002CAE7236849B923F020032360236846
:1006B00013F0800F09D130BCFFF782BF23F0800315
:1006C0002360236813F0200FF4E730BC704700BFAD
:1006D00000780040A004002000ED00E00050004041
:1006E0006D05200000100140490520009D052000F7
:1006F0009105200085052000790520006105200076
:1007000055052000F8B545688423184F064603FBBD
:1007100005739A68B2F5805F15D11B6940F2FF142A
:10072000002B18BFFF24842303FB0573A3F85C4050
:10073000304601F02DF80028FAD084235D437B5920
:10074000586A2040F8BD2AB91B69002B0CBFFF2452
:100750007F24E8E7B2F1805F05D11B69002B0CBF55
:100760007F243F24DFE70024DDE700BFA004002052
:1007700070B505460C464668284601F019F8002871
:10078000FAD08423C4F308045E43024B9B599C6255
:1007900070BD00BFA004002043692DE9F041DF07D0
:1007A00004460D4629D587683449826807EA010C5A
:1007B0008368334EB943334802EA060203EA000372
:1007C00001D10121A160B24202D14FF48071A16038
:1007D000834202D14FF48031A16028498C4505D075
:1007E00027498A4202D0274A934206D1264B01214B
:1007F000264A1B6852F825009847E2686369960705
:100800000CD098070AD563690021204A23F002031F
:1008100052F8250063611C4B1B689847A169626907
:10082000890763690AD5970508D51E0406D5164BB6
:100830000521164A1B6852F825009847A16962698C
:100840004807636902D46369BDE8F0815105FAD5B0
:100850001A040BD463691B04F6D50B4B02210B4A17
:100860001B6852F82500BDE8F0411847074A0721E8
:10087000054B52F825001B689847EBE7030000047E
:100880000003000800000310E0080020E408002036
:1008900000210148FFF780BF00640040FFF7F8BF68
:1008A000FFF7F6BF01210148FFF776BF006800405F
:1008B000FFF7F8BFFFF7F6BF02210148FFF76CBF53
:1008C00000340040FFF7F8BFFFF7F6BF91FAA1F33D
:1008D000B3FA83F391FAA1F130B55B000325B1FAC5
:1008E00081F1046805FA03F3490024EA03038A400E
:1008F0001A43026030BD000000B5454B8DB00A2898
:1009000000F28380DFE800F006131E29343F4A55C9
:10091000606B76001A6B3F4842F001021A631B6B52
:1009200003F001030193019B0DB05DF804FB1A6B0A
:10093000394842F002021A631B6B03F00203029370
:10094000029BF1E71A6B354842F004021A631B6BF5
:1009500003F004030393039BE6E71A6B304842F06D
:1009600008021A631B6B03F008030493049BDBE784
:100970001A6B2C4842F010021A631B6B03F0100331
:100980000593059BD0E71A6B274842F020021A63B3
:100990001B6B03F020030693069BC5E71A6B2348E5
:1009A00042F040021A631B6B03F040030793079B5E
:1009B000BAE71A6B1E4842F080021A631B6B03F001
:1009C00080030893089BAFE71A6B1A4842F48072C1
:1009D0001A631B6B03F480730993099BA4E71A6BDA
:1009E000154842F400721A631B6B03F400730A93F8
:1009F0000A9B99E71A6B114842F480621A631B6BD9
:100A000003F480630B930B9B8EE70D4804F0BEFE4E
:100A1000003802400000024000040240000802408A
:100A2000000C024000100240001402400018024076
:100A3000001C024000200240002402400028024026
:100A4000B0842000431C10B5044604D17722064927
:100A5000064804F0B3FC4FF4707104F00F0400F08A
:100A6000E5FC0120A04010BD1D8520002885200048
:100A70004B1C70B504460E46018216D0C1F303101C
:100A8000FFF73AFF05463046FFF7DCFF238A074AA7
:100A900003F00F036561206052F82330A36105F174
:100AA000100318356360C4E9025570BDB49120008D
:100AB000B0F9100000F04EBD0A46D0E905010AB9B0
:100AC000FFF704BF0122FBE74C23214A03FB00226E
:100AD0002DE9F04104460025964601271D4E07FAF0
:100AE00005F3DEF8000003422AD0536B706907FA61
:100AF00003F3184224D05068D2F81CC07361F8B1D7
:100B0000F26833EA020203D1B26833EA020213D177
:100B1000104A916833EA010103D1D26833EA020234
:100B20000CD1DCF810201A420CBF022101210A4B23
:100B3000BDE8F0411B6818470221F8E70121F6E7FC
:100B400001350432A942CAD12146044804F01EFEF0
:100B5000F0080020003C0140080B00203B852000ED
:100B600006210846FFF7B0BF05210846FFF7ACBFD6
:100B700001210420FFF7A8BF01210320FFF7A4BF34
:100B800001210220FFF7A0BF01210846FFF79CBF0B
:100B900001210020FFF798BF012910B514D18389E6
:100BA000154C03F00F039940836832B1A26843F0FB
:100BB00001031143A160836010BDA26823F001030B
:100BC00022EA0102A260F6E70229F5D18389012415
:100BD000094903F00F039C4083682AB1CA6843F0B7
:100BE00002032243CA60E6E7CA6823F0020322EA4E
:100BF0000402CA60DFE700BF003C0140B0F90C30DE
:100C000003F00C0203F0030102F18042890070B589
:100C100002F59C320F2503F00F06C3F3031394680B
:100C20008D408B4024EA05042343936001230F4A3F
:100C3000B3401168194311608468E50702D59168D3
:100C400019439160A10702D5D1680B43D36090F995
:100C50000030002B08DB0122590903F01F0302FAC0
:100C600003F3034A42F8213070BD00BF003C01404D
:100C700000E100E02DE9F74F99464B1C05460C4674
:100C800090467AD004F062FC3D4B04F00F0A3D4ED2
:100C90005A6CC4F3031042F480425A640C225B6C19
:100CA00003F480430193019B374B02FB0A32D2F8D5
:100CB00004B0328842FA0AF717F0010702D033482D
:100CC00004F064FD012101FA0AF10A433280BBF10C
:100CD000060F50D8DFE80BF004434547494B4D0061
:100CE0002B4EFFF709FE0C21274B4FF0000C01FBA8
:100CF0000AF14FF0010EC5F808C04FF04C0C5A181D
:100D0000AC810CFB0BFC5C5892F9082021490EFACF
:100D100004FE2A70103251F80C30C5F804B043EAD2
:100D20000E0341F80C30132303FB0B4401EB840347
:100D3000C3F80490D861C3F834A0174BC3F80080FF
:100D4000164B9B6843F82260BFF34F8F2846FFF78E
:100D500055FF04F011FC384603B0BDE8F08F104E8B
:100D6000BFE7104EBDE7104EBBE7104EB9E7104E7F
:100D7000B7E7104EB5E71048A2E70F46EBE700BF14
:100D800000380240040B0020EC9020006485200015
:100D9000910B2000F0080020080B002000ED00E07F
:100DA000890B2000810B2000790B2000710B2000A3
:100DB000690B2000610B20008D85200082890C23A7
:100DC000254902F00F025343F0B5CC58CD18234B00
:100DD00001216D689E6801FA02F201FA04F726EA21
:100DE00002069E60DE6826EA0206DE601E6826EACB
:100DF000020213261A6006FB0544194A02EB84041A
:100E0000646BA1405C690C4200D059614C235D4386
:100E10005359BB431FD190F90030002B0DDB5A0909
:100E2000012103F01F03994002F120030D4A42F80B
:100E30002310BFF34F8FBFF36F8F90F90030002B5B
:100E400009DB5A09012103F01F03994002F16003F5
:100E5000044A42F82310F0BDEC902000003C014011
:100E6000F008002000E100E0F8B5054604F06EFB54
:100E70000C22AB8928466E6803F00F035343154AD2
:100E8000D458FFF79BFF4C23134A0121734301FA07
:100E900004F7D55825EA0705D550132303FB06436D
:100EA000002402EB83056C609D1D0C3302EB85056D
:100EB00002EB830283896C6003F00F035460074ADE
:100EC0009940138823EA01031380BDE8F84004F039
:100ED00053BB00BFEC902000F0080020040B002062
:100EE00008B500F017FF002008BD000038B504F079
:100EF0002DFB124B124913485C6A02680B889B1A3F
:100F00002344B3F5803F17D34FF47A75B3FBF5F262
:100F100005FB123305E00132A3F57A73B3F57A7F4E
:100F2000F9D204609BB2084C0B8023681344236001
:100F300004F022FB206838BD0022EFE7000C0040DF
:100F40000C0B0020140B0020100B002000487047F1
:100F5000AC912000024BD869DA698242FBD170471C
:100F60000024004008B504F0F1FA084B01221A7081
:100F70000022074B1A704FF00052064BC3F80821AD
:100F80009A60BDE8084004F0F7BA00BF280B0020C3
:100F9000270B002000E100E010B504F0D7FA134B56
:100FA0001A7842B9124A126811680907FCD508215B
:100FB000516001221A700F4C23781BB104F052FDCE
:100FC0000023237000230C4A13700C4A13704FF057
:100FD00000520B4BC3F88820BFF34F8FBFF36F8FC6
:100FE000BDE81040C3F8882104F0C6BA240B0020E5
:100FF0002C0B00201C0B0020270B0020280B0020AE
:1010000000E100E0404B70B51C68B2B024B132B0D2
:10101000BDE87040FFF7C0BF01258C2221460FA814
:101020001D6006F065FA3022214602A806F060FA3B
:10103000042303954FF4802501934FF0407301A8DA
:101040000E952B9301F0D8F910B1304804F09EFBB7
:101050000EA801F0EFFC08B12D48F7E72D4B4FF635
:10106000FF762D4C1A6C42F400721A641A6C02F46A
:1010700000720092009A1A6A42F400721A621A6AA6
:1010800022F400721A62A3F5053384F82E00E061A1
:10109000A0622360C4E90100C4E90300C4E90800B8
:1010A0002046C4E9056501F0B9F8054608B11B48BA
:1010B000CCE71B4B1B4A9B68C3F8B421BFF34F8F8F
:1010C000194B314620461A6842F400021A609A68A9
:1010D00042F400029A6023689A6842F001029A6022
:1010E0009A6842F008029A6001F0EAF82368082240
:1010F0005A605D611A681207FCD508225A60012205
:101100000A4B1A7032B070BD180B0020B485200055
:10111000CD852000003802402C0B0020EE852000F9
:1011200000ED00E021122000003C0140240B0020D3
:1011300008B504F00BFA064B01221B685A604FF009
:101140000052044BC3F88821BDE8084004F014BAEB
:101150002C0B002000E100E070B5044604F0F6F925
:10116000FFF7F8FE264B05461C60264A4FF000515B
:101170009160254E3278F2B9611F4FF6F5729142B7
:1011800022490FD94FF6FA7290420BD90634012248
:10119000A4B20A701C601E4B01221A70BDE8704098
:1011A00004F0EAB900220A701B68AB42194B28BF51
:1011B00001221A70EFE7FFF7BBFF00235A19013332
:1011C00092B2A24204BF0534A4B2052BF6D1124B51
:1011D000AC421B6811D24FF6FA7295420DD84FF00F
:1011E000FF325A6100230D4C33702378002BD5D188
:1011F00004F022FC01232370D0E75C61F2E700BF1A
:10120000200B002000E100E0240B0020250B002033
:10121000270B0020260B00202C0B00201C0B00208D
:1012200070B504F093F92E4B2E4C1A7832B1002190
:10123000226819700123536003F060F823681A686C
:10124000D50706D59A68D00703D501225A6003F066
:1012500055F823681A68110724D59A68120721D512
:101260000822214C5A600122204B1A7023781BB1AE
:1012700004F0F8FB002323701D4C237893B11D4D1F
:101280001D492B7803F0FF06D3B1FFF763FE06304C
:101290000B6880B298420DD3FFF764FE00232B70D9
:1012A00000232370154B4FF40002BDE870405A61D3
:1012B00004F062B90868063880B2FFF74DFFEDE729
:1012C0000F4D2B7843B1FFF745FE0B68984203D3CF
:1012D000FFF748FE2E70E3E70868FFF73DFFDFE702
:1012E000280B00202C0B00201C0B0020240B0020BE
:1012F000270B0020250B0020200B0020003C014084
:10130000260B0020FFF748BE704700002F4B5A699C
:10131000900370B515D45A6912F4003211D1BFF39D
:101320004F8FBFF36F8FC3F85022BFF34F8FBFF3C0
:101330006F8F5A6942F400325A61BFF34F8FBFF387
:101340006F8F224A5369D90327D4536913F480332A
:1013500023D1C2F88430BFF34F8FD2F8803043F6E8
:10136000E074C3F3C900C3F34E335B0103EA040620
:10137000014646EA81750139C2F86052F9D2203B34
:1013800013F1200FF2D1BFF34F8F536943F4803331
:101390005361BFF34F8FBFF36F8F0D4C00F0F2FD21
:1013A00000F02AFE236F9B0705D400F0B1FF236FE6
:1013B00023F018032367FFF74FF800F0E3FDFFF772
:1013C000A3FF044B01221A6070BD00BF00ED00E0D6
:1013D000003802405C0B002091FAA1F3B3FA83F3CA
:1013E00091FAA1F130B55B000325B1FA81F184686F
:1013F00005FA03F3490024EA03038A401A43826092
:1014000030BD91FAA1F3B3FA83F391FAA1F130B5AB
:101410005B000325B1FA81F1C46805FA03F34900C2
:1014200024EA03038A401A43C26030BDB0F1FF3F93
:101430002DE9F84380460E4600F0838000F00F024D
:10144000C1F38319404BC0F3031001F0070753F8B1
:101450002250FFF751FAB9F10F0F044629460CBF8D
:1014600003224A46FFF7B8FF032F61D8DFE807F0F1
:1014700065672F02032395FAA5F2B2FA82F20320E0
:101480002168013F5200012F00FA02F221EA020115
:1014900095FAA5F2B2FA82F24FEA420203FA02F397
:1014A00043EA0103236005D8636832074CBF2B432E
:1014B000AB436360C6F30112012A02D0022A18BFAF
:1014C000002229462046BDE8F843FFF79ABF18F0EE
:1014D000080FC6F3832217D02B0A4FF00F0C93FA94
:1014E000A3F1B1FA81F1406A93FAA3F38900B3FA48
:1014F00083F30CFA01F19B0020EA010102FA03F3E5
:101500000B4363620223B6E795FAA5F3B3FA83F3BC
:10151000016A0F209B0000FA03F321EA030195FA08
:10152000A5F3B3FA83F39B009A400A432262E9E7EA
:10153000D5220649064803F041FF00239BE701231B
:1015400099E7BDE8F88300BFB491200050862000E1
:101550008B8F200038B5431C0D4634D000F00F02AD
:10156000194BC0F3031053F82240FFF7C5F994FA62
:10157000A4F2B2FA82F2032301685200934094FA73
:10158000A4F20B406AB1B2FA82F25200D340013B9E
:10159000012B06D8EB1E022B436894BF2343A343C1
:1015A0004360013D042D0CD8DFE805F00309030B6F
:1015B000090001222146BDE83840FFF722BF022280
:1015C000F8E70022F6E738BDB4912000006800F08B
:1015D00001007047C069C0F3801070470FB4074B1B
:1015E0001B6807B5064905AAD868019203F045FDB6
:1015F00003B05DF804EB04B0704700BF1C0400208A
:10160000598620000368584A934210B5044647D1D2
:1016100002F59432516A41F010015162516A21F091
:1016200010015162516C21F0100151644F4A9342F4
:1016300047D14F4B5A6A42F020025A625A6A22F04E
:1016400020025A625A6C22F020025A6440F2C331DE
:10165000B4F91800FFF7EAFE40F2C331B4F91A00FA
:10166000FFF7E4FE236A23F40073B3F5807F05D10E
:1016700040F2C331B4F92400FFF7D8FE236A23F403
:101680008073B3F5007F05D140F2C331B4F9260071
:10169000FFF7CCFE62680021364B43F8221010BDE4
:1016A000354A93421DD102F5FA32116A41F40031F4
:1016B0001162116A21F400311162116C21F40031C0
:1016C00011642E4A93421DD1294B1A6A42F080427E
:1016D0001A621A6A22F080421A621A6C22F0804260
:1016E0002FE0274A93421DD102F5F832116A41F4E6
:1016F00080211162116A21F480211162116C21F4A0
:10170000802111641F4A9342A0D1194B1A6A42F0FA
:1017100000421A621A6A22F000421A621A6C22F01F
:1017200000420EE0184A93420DD1114B1A6A42F45E
:1017300000221A621A6A22F400221A621A6C22F437
:1017400000221A6482E7114A93427FF46FAF084B7C
:101750001A6A42F480121A621A6A22F480121A6219
:101760001A6C22F48012ECE70010014000140140D2
:1017700000380240C00800200044004000780040CB
:1017800000480040007C0040004C004000500040F9
:10179000842243685343054AD358DA69120701D5B6
:1017A00008221A62D869C0F340107047A0040020D4
:1017B000436884225343034AD358D869C0F3C01006
:1017C000704700BFA004002030B403464468842260
:1017D00016491D68624350188D509A684260DA6855
:1017E00082601A69C2605A6902611A6A82610022C3
:1017F000A0F85220C261A0F85020A0F85A20A0F80A
:101800005820C0E90822B3F91A2001320CD0B3F9EC
:1018100018305A1C0CBF04230C23842202FB041131
:1018200030BC4B6101F024BF0823F6E7A004002080
:1018300010B581600C46FFF7C7FF28B12146034869
:10184000BDE81040FFF7CABE10BD00BF598620009A
:10185000184B98421FD0A3F54C4398421DD003F576
:10186000806398421BD003F58063984219D003F53A
:101870008063984217D003F54443984215D0A3F5EE
:101880001C43984213D003F5806398420CBF072095
:101890004FF0FF3070470020704701207047022052
:1018A00070470320704704207047052070470620CA
:1018B000704700BF001001402DE9F0470F46164663
:1018C00088B06F490446384602F046FD82466D49AD
:1018D000304602F041FD0146504602F019FD6849CC
:1018E0000546384602F04EFD66498146304602F014
:1018F00049FD382F80460AD0392E08D0604938205B
:1019000002F02AFD50450CD15F4803F03FFF4FF035
:10191000010A691C256007D141225C495C4803F03B
:101920004DFD4FF0000AF4E75A4B9D4219D103F5E3
:1019300094335A6C42F010025A645B6C03F010034B
:101940000093009B544B9D4219D103F592335A6C7E
:1019500042F020025A645B6C03F020030593059B60
:1019600047E04E4B9D4219D103F5FA331A6C42F40D
:1019700000321A641B6C03F400330193019B484B43
:101980009D4219D103F5E0331A6C42F080421A648B
:101990001B6C03F080430693069B2AE0414B9D425B
:1019A00019D103F5F8331A6C42F480221A641B6CC7
:1019B00003F480230293029B3B4B9D4219D103F514
:1019C000DE331A6C42F000421A641B6C03F00043D1
:1019D0000793079B0DE0354B9D4214D103F5F63379
:1019E0001A6C42F400221A641B6C03F40023039364
:1019F000039B2846FFF72CFF6060013012D1A02224
:101A000022492B488BE72B4B9D429BD103F5F433A6
:101A10001A6C42F480121A641B6C03F48013049352
:101A2000049BE6E749463846FFF700FD01213846AA
:101A3000FFF790FD41463046FFF7F8FC30460121A4
:101A4000FFF788FD00234FF4E1322046236227830D
:101A50006683C4E90223C4E90433FFF7B5FEBAF193
:101A6000000F0AD0144B0122214614481A604C2260
:101A700008B0BDE8F04705F0C6BD08B0BDE8F08786
:101A8000948320008C82200083862000048720001D
:101A90001187200000100140001401400044004064
:101AA0000078004000480040007C0040004C0040AE
:101AB0002D87200000500040AC0B0020600B002060
:101AC00008B52948FFF782FD034620B12648FFF7F5
:101AD00081FD80F001032548FFF778FD28B12348F8
:101AE000FFF778FD80F0010003432148FFF76EFD0A
:101AF00028B11F48FFF76EFD80F0010003431D4829
:101B0000FFF764FD28B11B48FFF764FD80F001007A
:101B100003431948FFF75AFD28B11748FFF75AFD4C
:101B200080F0010003431548FFF750FD28B113482A
:101B3000FFF750FD80F0010003431148FFF746FD19
:101B400028B10F48FFF746FD80F0010003430D4820
:101B5000FFF73CFD28B10B48FFF73CFD80F001008A
:101B60000343184608BD00BF001001400044004078
:101B700000480040004C004000500040001401406C
:101B800000780040007C0040034A516A536A5B1AA7
:101B90008342FBD3704700BF000C004010B5002407
:101BA00086B01422214601A8009405F0A1FC6946E4
:101BB00001A800F021FF0F23009901A801930594CB
:101BC0000494CDE9024400F009FE10B1024803F08C
:101BD000DDFD06B010BD00BF3F87200000B58FB00F
:101BE0000021342201A805F083FC0F4B01A81A6CD8
:101BF00042F080521A641B6C03F080530093009BE8
:101C000000F0AAFE0223012101A801931023CDE9CF
:101C100004130023079300F0EFFB10B1034803F017
:101C2000B5FD0FB05DF804FB003802406787200067
:101C300008B503F08BFC064B0121186810F0010079
:101C400018BF084600F06CFBBDE8084003F094BCE8
:101C50000070004038B5FFF733FF0446D8B903F0F1
:101C600075FC0D4D00F0F0F80121084600F06CFB0A
:101C70002C60FFF7B3FFFFF791FFFEF7EDFB4FF48A
:101C8000FA70FFF781FF00F0F7F801232B60BDE841
:101C9000384003F071BC38BD5C0B0020014B186864
:101CA00001F07AB9C40B0020014B186801F074B937
:101CB000C00B0020014B186801F06EB9BC0B00206E
:101CC000014B186801F068B9B80B0020014B186887
:101CD00001F062B9B40B0020014B186801F05CB947
:101CE000B00B0020074B084A13601A69910707D50B
:101CF000DA68920704D56FF002021A6102F052BD51
:101D0000704700BF000C0040D40B00200048704713
:101D1000F491200030B589B0244C01A903A800F04B
:101D20006BFE00F0F9FD224B01901A6C42F00802A4
:101D30001A641A6C02F008020292029A1A6A42F0BD
:101D400008021A621A6A22F008021A62A3F50B331B
:101D5000069A23604FF0FF33E360164B0ABBB0FBDB
:101D6000F3F3581E0025606010482561A560C4E9A2
:101D7000055501F0EFF9104B104A9B68C3F8082194
:101D8000BFF34F8F0E4B4FF480225A60074829460D
:101D900001F01EFA2268D36823F00203D36009B071
:101DA00030BD4000B0FBF3F00138DBE7D40B00207E
:101DB0000038024040420F0000ED00E0E51C20002A
:101DC00000E100E0044800210268D36823F0020328
:101DD000D36001F0FDB900BFD40B0020014B586A5D
:101DE000704700BF000C0040054B6FF002021B68FB
:101DF00058631A61DA6842F00202DA60704700BF85
:101E0000D40B0020064B6FF002021B681A615A695E
:101E100042F002025A61DA6842F00202DA60704768
:101E2000D40B0020034B1A68D36823F00203D3605D
:101E3000704700BFD40B0020024B6FF002021B68FA
:101E40001A617047D40B0020064B074A1B68596A79
:101E500011605A6B054B1A60054BDA68054B1A6026
:101E6000704700BFD40B0020D00B0020CC0B00200B
:101E7000000C0040C80B0020064B074A1B68126884
:101E80005A62064A12685A63054B1A68054BDA60B3
:101E9000704700BFD40B0020D00B0020CC0B0020DB
:101EA000C80B0020000C0040014B186800F0DEB8A1
:101EB000200C0020014B586800F0D8B8200C0020FE
:101EC000014B986800F0D2B8200C0020014BD86874
:101ED00000F0CCB8200C0020014B186900F0C6B807
:101EE000200C0020014B586900F0C0B8200C0020E5
:101EF000014B986900F0BAB8200C0020014BD8695A
:101F000000F0B4B8200C0020014B186A00F0AEB805
:101F1000200C0020014B586A00F0A8B8200C0020CB
:101F2000014B986A00F0A2B8200C0020014BD86A3F
:101F300000F09CB8200C0020014B186B00F096B804
:101F4000200C0020014B586B00F090B8200C0020B2
:101F5000014B986B00F08AB8200C0020014BD86B25
:101F600000F084B8200C0020044B054A9A60D3F896
:101F7000882042F47002C3F88820704700ED00E02A
:101F800000002000164B9A6802F00C02042A22D0AE
:101F9000082A22D159685A6849025B6802F03F0258
:101FA00048BF1049C3F3881358BF0F49B1FBF2F281
:101FB00053430B4A5268C2F3014201325200B3FB51
:101FC000F2F3074A09499268C2F303128A5CD340CC
:101FD000074A13607047034BF3E7034BF1E700BF79
:101FE0000038024000127A000024F400049220001D
:101FF000FC0200207047000008B5094B03201A6856
:1020000042F400721A601A6842F480721A6000F09A
:1020100009F80F20FEF764FFFFF7ECFF002008BD72
:10202000003C024007490302CA6803F4E06322F45B
:10203000E0621204120C134343F0BF6343F4003315
:10204000CB60704700ED00E090F83530022B03D0F4
:1020500080234365012070470268052380F83530EE
:102060000020136823F00103136070470023F7B5C5
:10207000019308225B4B0446856D1F68C36D2E6873
:102080009A4032420CD001680868400708D50868B9
:1020900020F004000860AA60626D42F001026265EF
:1020A00001229A40324208D021684969090604D5C4
:1020B000AA60626D42F00202626504229A403242D6
:1020C00008D021680968880704D5AA60626D42F0CB
:1020D0000402626510229A40324210D023681968C7
:1020E00009070CD5AA601A68500337D51B68190375
:1020F00001D4236C00E0A36C0BB120469847E16D3E
:1021000020228A4032423AD023681868C60636D563
:10211000AA6094F83520052A1A6827D122F0160201
:102120001A605A6922F080025A61226C0AB9A26CC4
:102130001AB11A6822F008021A603F238B40AB6084
:10214000002384F83430012384F83530236D002BCC
:1021500045D0204603B0BDE8F04018471A68D205C4
:10216000C7D41A6822F008021A60C2E7500327D5C4
:102170001B68190331D4636C0BB120469847636D1B
:102180006BB3636DDA0719D54FF416532268B7FBAA
:10219000F3F7052384F83530136823F00103136047
:1021A000019B0133BB42019302D81368DB07F7D4CC
:1021B000002384F83430012384F83530E36CC6E71B
:1021C0001A6812F4807208D1196821F010011960A0
:1021D000012384F8342084F83530E36BCCE703B076
:1021E000F0BD00BFFC0200200A4B44F620621B68D1
:1021F000B3FBF2F34FF47A7210B553430468002036
:10220000013B226808BF032031EA020201D0002B03
:10221000F6D110BDFC02002070470000F8B504465E
:10222000002848D090F82E3003F0FF021BB980F848
:102230002D20FFF7F1FF616802232068012984F84F
:102240002E30A56AC36802D0B5F5000F01D123F086
:102250001E034FF6FF766269184FB242A6681CBF94
:1022600023F4604323F0C0031F4041EA05033343D6
:10227000266A3343666A33433B43A9B9E169266959
:1022800031430B43B5F5000F10D04FF6FF718A4272
:1022900004D0A1690A43E1690A431343C3600123DF
:1022A000002084F82E30F8BD0129EBD1D4E90315C4
:1022B00029430B43E9E70120F5E700BFFEF119FFD1
:1022C000022238B580F82E2004460B46D0E9005291
:1022D000012A07D0826AB2F5000F03D1EA6822F41E
:1022E0006062EA602A691021204642F001022A61F8
:1022F0006960AB61FFF778FF032807D02B690020E6
:1023000043F004032B61012384F82E3038BD000014
:10231000024A136843F480731360704700700040F2
:10232000084A136923F004031361BFF34F8FBFF30F
:102330006F8F012901D130BF704740BF20BF20BF40
:10234000704700BF00ED00E00D4A136823F003035F
:10235000034313600B4B1A6942F004021A61BFF386
:102360004F8FBFF36F8F012905D130BF1A6922F05B
:1023700004021A61704740BF20BF20BFF6E700BFCC
:102380000070004000ED00E0194B37B51A6C194C95
:1023900042F080521A641B6C03F080530193019B3E
:1023A000236843F480332360FEF7A0FD054663688D
:1023B000DA030CD523680F4D43F400332360FEF796
:1023C00095FD04466B689B030AD5002006E0FEF7E6
:1023D0008DFD401BB0F57A7FE9D9032003B030BDF5
:1023E000FEF784FD001BB0F57A7FEBD9F5E700BF5F
:1023F00000380240007000402DE9F341044618B94E
:10240000012002B0BDE8F0810368DE0710D4236824
:102410009D075ED42368190700F1A38023685A073B
:1024200000F1C480A269002A40F02E810020E8E774
:10243000934B9A6802F00C02042A07D09A6802F0C3
:102440000C02082A0AD15B68590207D58C4B1B681D
:102450009A03DCD56368002BD9D1D1E76368884D36
:10246000B3F5803F11D12B6843F480332B60FEF726
:102470003DFD834E054633689B03C8D4FEF736FD09
:10248000401B6428F7D90320BBE79BB92B6823F4D2
:1024900080332B602B6823F480232B60FEF726FD0E
:1024A00006462B689F03B2D5FEF720FD801B6428EB
:1024B000F7D9E8E7B3F5A02F2B6803D143F48023C5
:1024C0002B60D0E723F480332B602B6823F4802328
:1024D000CCE76B4B9A6812F00C0F07D09A6802F0A9
:1024E0000C02082A11D15B685D020ED4644A13689D
:1024F000990702D5E368012B82D11368216923F083
:10250000F80343EAC103136084E7E3685C4DBBB1A1
:102510002B6843F001032B60FEF7E8FC06462B68AE
:102520009B0707D52B68226923F0F80343EAC2030F
:102530002B606FE7FEF7DAFC801B0228EFD9A2E7D9
:102540002B6823F001032B60FEF7D0FC06462B68B6
:102550009F077FF55FAFFEF7C9FC801B0228F6D905
:1025600091E76369464D83B16B6F43F001036B677D
:10257000FEF7BCFC06466B6F9B073FF54FAFFEF7BF
:10258000B5FC801B0228F6D97DE76B6F23F00103B1
:102590006B67FEF7ABFC06466B6F9F077FF53EAFA0
:1025A000FEF7A4FC801B0228F6D96CE7344B1A6CAA
:1025B000D50027D41A6C012742F080521A641B6C94
:1025C00003F080530193019B2E4D2B68D8051BD53A
:1025D000A3682B4D012B27D12B6F43F001032B67F1
:1025E00041F28838FEF782FC254E0546336F9A0784
:1025F0003FD5002F3FF416AF214A136C23F08053D0
:1026000013640FE70027DFE72B6843F480732B6028
:10261000FEF76CFC06462B68D905D9D4FEF766FC9C
:10262000801B6428F7D92EE7ABB92B6F41F28838AD
:1026300023F001032B672B6F23F004032B67FEF7B6
:1026400055FC06462B6F9B07D3D5FEF74FFC801B2E
:102650004045F7D917E7052B2B6F03D143F004034F
:102660002B67B9E723F001032B672B6F23F00403DB
:10267000B5E7FEF73BFC401B4045B7D903E700BF79
:1026800000380240007000403C4DAB6803F00C0382
:10269000082B42D02B68022A23F080732B602FD1A5
:1026A000FEF724FC06462B68990123D4D4E90732AF
:1026B0001343626A43EA8213E26A43EA0263226BCB
:1026C00043EA0273A26A5208013A43EA02436B608A
:1026D0002B6843F080732B60FEF708FC274D0446FF
:1026E0002B689A013FF5A2AEFEF700FC001B022802
:1026F000F6D9C8E6FEF7FAFB801B0228D3D9C2E65A
:10270000FEF7F4FB04462B689B017FF58FAEFEF7C6
:10271000EDFB001B0228F6D9B5E6012A6B683FF4F1
:102720006FAE03F48002E1698A427FF469AE03F080
:102730003F02216A8A427FF463AE47F6C072616A43
:102740001A40B2EB811F7FF45BAEA26A03F4403102
:102750005208013AB1EB024F7FF452AE03F07062BF
:10276000E16AB2EB016F7FF44BAE226B03F0E04302
:10277000B3EB027F14BF0120002042E60038024084
:10278000134908B58B6803F00C03042B1BD0082BEE
:102790001BD14A684B68496802F03F0213F480037A
:1027A000C1F388111ABF0B4800230B48A1FB00019D
:1027B00005F074FB064B5B68C3F3014301335B0018
:1027C000B0FBF3F008BD0348FCE70348FAE700BF9D
:1027D0000038024000127A000024F4002DE9F04194
:1027E0000D46044610B90120BDE8F081454A136842
:1027F00003F00F038B4228D321688F0730D4C8071A
:1028000043D4404A136803F00F03AB4266D82268F2
:1028100051076FD4130707D53B4A2169936823F406
:10282000604343EAC1039360FFF7AAFF364B374A80
:102830009B68C3F30313D35CD840354B1860354B0A
:102840001868FEF74DFB0020CEE7136823F00F0356
:102850000B431360136803F00F038B42C3D1CBE724
:1028600011F0040F284B03D09A6842F4E0529A60AA
:102870000E0703D59A6842F460429A609A68A0688D
:1028800022F0F00202439A60B9E761681E4B012909
:102890001A681BD112F4003FA5D09A6841F288381B
:1028A000194F22F003020A439A60FEF71FFB064607
:1028B000BB68626803F00C03B3EB820FA1D0FEF794
:1028C00015FB801B4045F3D903208DE7022902D177
:1028D00012F0007FE0E712F0020FDDE7136823F04B
:1028E0000F032B431360136803F00F03AB427FF415
:1028F0007AAF8CE70449E0688B6823F4E053034324
:102900008B6087E7003C02400038024004922000C0
:10291000FC02002000030020044B054A9B68C3F31F
:102920008223D35C034A1068D840704700380240C5
:10293000FC912000FC020020044B054A9B68C3F375
:102940004233D35C034A1068D840704700380240D5
:10295000FC912000FC0200200F230360254B1A6825
:10296000510341D41A6802F4803242601A6802F0BE
:102970000102C2601A68C2F3C40202611A6F5207F0
:1029800035D41B6F03F0010383601A4B5A6F02F0BA
:10299000010242611A6812F0807F0CBF01220222FC
:1029A00082615A6802F48002C2615A6802F03F02F2
:1029B00002625A68C2F3881242625A6802F44032D4
:1029C00002F58032D20B82625A68C2F30362C2629D
:1029D0004FF0E0425B6892FAA2F203F0E043B2FAF1
:1029E00082F2D340036370474FF4A022BDE7052372
:1029F000CAE700BF003802400F2303600B4B9A6800
:102A000002F0030242609A6802F0F00282609A6863
:102A100002F4E052C2609B68DB0803F4E0530361F8
:102A2000034B1B6803F00F030B6070470038024034
:102A3000003C02402DE9F7430268044612F001030E
:102A40000BD0AF498B6823F400038B60636B8868FD
:102A50001843B3FA83F35B09886012F4002612D09E
:102A6000A748E66BD0F88C10B6F5801F21F4401112
:102A700008BF012341EA060116BFB6FA86F6002612
:102A80007609C0F88C10D00211D59D4D206CD5F878
:102A90008C10B0F5800F21F4400141EA0001C5F827
:102AA0008C1000F0A981002808BF46F00106C2F38F
:102AB0000067910647EA030731D5914B914D1A6C97
:102AC00042F080521A641B6C03F080530193019B07
:102AD0002B6843F480732B60FEF708FA80462B685E
:102AE000DA0540F18B81864D2B6F13F4407340F073
:102AF0009081236B03F44072B2F5407F804A40F02E
:102B0000AE81916823F0704021F4F81120F44070F8
:102B100001439160C3F30B03116F0B4313672568E7
:102B2000E9060CD5764BD3F88C2022F08072C3F8DE
:102B30008C20D3F88C20A16B0A43C3F88C206A0444
:102B400008D56F4A616ED2F8903023F440330B43BE
:102B5000C2F890302B0408D5694AA16ED2F89030A3
:102B600023F440230B43C2F89030E80308D5644AAD
:102B7000E16ED2F8903023F440130B43C2F890304A
:102B8000A90308D55E4A216FD2F8903023F44003A0
:102B90000B43C2F890306A0608D5594A616CD2F8E6
:102BA000903023F003030B43C2F890302B0608D576
:102BB000534AA16CD2F8903023F00C030B43C2F8B7
:102BC0009030E80508D54E4AE16CD2F8903023F0F9
:102BD00030030B43C2F89030A90508D5484A216D4F
:102BE000D2F8903023F0C0030B43C2F890306A054E
:102BF00008D5434A616DD2F8903023F440730B43FB
:102C0000C2F890302B0508D53D4AA16DD2F890301E
:102C100023F440630B43C2F89030E80408D5384AE7
:102C2000E16DD2F8903023F440530B43C2F890305A
:102C3000A90408D5324A216ED2F8903023F44043DB
:102C40000B43C2F890306A0208D52D4AA16FD2F822
:102C5000903023F080630B43C2F89030AB020DD567
:102C60002749E26FD1F89030B2F1006F08BF46F00B
:102C7000010623F000631343C1F89030680308D5C0
:102C80001F4A616FD2F8903023F040730B43C2F8B3
:102C90009030290209D51A4AD4F88010D2F8903021
:102CA00023F080530B43C2F890306A0109D5144ACF
:102CB000D4F88410D2F8903023F000530B43C2F8BC
:102CC00090302B0109D50E4AD4F88810D2F88C30F8
:102CD00023F000730B43C2F88C30E80009D5084A92
:102CE000D4F88C10D2F88C3023F080630B43C2F8F8
:102CF0008C30002F40F0B780A90100F1B48003E0D0
:102D00000038024000700040C5F3C0053543012D76
:102D100070D19F4D2B6823F080532B60FEF7E6F8AF
:102D200006462B689F0000F1248121680E0301D51F
:102D3000E36B1BB1CD021DD5236CDBB9944AD2F8ED
:102D40008830D2F8880003F4403300F0E0400343B9
:102D5000606943EA8013A06943EA0063C2F88830DF
:102D6000D2F88C30A06A23F4F853013843EA0023E8
:102D7000C2F88C30880215D5E36FB3F1006F11D122
:102D8000834AD2F88830D2F8880003F0706300F0EC
:102D9000E0400343606943EA8013206A43EA00434A
:102DA000C2F888300A0719D57949D1F88820D1F8B6
:102DB000883002F0706203F440331343626943EADF
:102DC0008213E26943EA0273C1F88830D1F88C308B
:102DD000E26A23F440331343C1F88C306C4C23680F
:102DE00043F080532360FEF781F8054623689B007B
:102DF00040F1C680002009E0012358E6FEF776F88E
:102E0000A0EB080064287FF66AAE032003B0BDE89B
:102E1000F083226B02F4407293423FF46AAE2B6F50
:102E20002A6F23F4407342F480322A672A6F22F417
:102E300080322A672B672B6FDB077FF55AAEFEF7D0
:102E400055F841F2883980462B6F98073FF551AE0F
:102E5000FEF74CF8A0EB08004845F5D9D5E7916896
:102E600021F4F81155E64A4F3B6823F080633B603C
:102E7000FEF73CF880463B681A0173D42268D307FA
:102E800012D5636B83B9D7F88430D7F8841003F474
:102E9000403301F070610B43616843EA8113A1681C
:102EA00043EA0173C7F88430170303D5E36BB3F526
:102EB000801F05D0D0021ED5236CB3F5800F1AD128
:102EC0003349D1F88430D1F8840003F4403300F062
:102ED000E0400343606843EA8013E06843EA00632C
:102EE000C1F88430D1F88C00636A20F01F00013BE8
:102EF0000343C1F88C30D10111D52549D1F8843074
:102F0000D1F8840003F0706300F0E0400343606890
:102F100043EA8013206943EA0043C1F884309201F8
:102F20000DD5236962681B0443EA8213E26843EA11
:102F30000263A26843EA0273154AC2F88430144F50
:102F40003B6843F080633B60FDF7D0FF80463B6801
:102F50001B013FF5D9AEFDF7C9FFA0EB08006428BF
:102F6000F5D952E7FDF7C2FFA0EB0800642882D92B
:102F70004BE7FDF7BBFF801B64287FF6D2AE44E72A
:102F8000FDF7B4FF401B64287FF630AF3DE700BF7C
:102F900000380240704700000368F0B55D6885B0F6
:102FA0009A68044656064FEA9211C2F3801708D475
:102FB000D60706D56E0604D5C36C05B0BDE8F04053
:102FC0001847960704D5280602D5236D2046F4E756
:102FD00041EA521102F48070560901F001010143E7
:102FE00056D0AA0654D577B194F85D200021032A63
:102FF00048D0226E42F0040222660091DA68009204
:103000009A680092009AF1070CD5226E42F00102F4
:103010002266002202929A6802921A6822F0400206
:103020001A60029A40B1226E42F008022266002223
:1030300003929A680392039A226E4AB35A6822F066
:10304000E0025A60012284F85D20AA0722D05A6863
:10305000A06D22F003025A6040B1104B0365FEF7E9
:10306000F3FF18B1236E43F040032366606D78B11F
:103070000A4B0365FEF7E8FF50B1236E43F04003AF
:10308000236605E00191DA6801929B680193019B38
:1030900005B0F0BD2046FFF77DFFF9E7A130200025
:1030A00008B5806B0023A0F84630C387FFF772FF96
:1030B00008BD7047254A0368904212D0B0F1804F96
:1030C0000FD0A2F57C4290420BD002F58062904274
:1030D00007D002F58062904203D002F57842904218
:1030E00008D123F070034A68134323F44073CA687D
:1030F000134316E0164A9042F7D002F580629042E0
:10310000F3D002F580629042EFD0A2F5983290425F
:10311000EBD002F580629042E7D002F580629042E7
:10312000E3D04A6923F08003134303608B68C362D2
:103130000B688362054B984203D003F58063984285
:1031400001D10B6903630123436170470000014013
:103150000040014010B5044650B390F83D3003F0F4
:10316000FF021BB980F83C20FFF7A3FF0223206871
:10317000211D84F83D30FFF79DFF0123002084F8D6
:10318000483084F83E3084F83F3084F8403084F88A
:10319000413084F8423084F8433084F8443084F875
:1031A000453084F8463084F8473084F83D3010BD0F
:1031B0000120FCE710B501F01F010124036A8C40D7
:1031C0008A4023EA04030362036A1A43026210BDC1
:1031D000082908B528D012D8C1B104291CD090F80C
:1031E0004330012B16D1082905D90C294FF00203D1
:1031F00046D0102947D0022380F8433027E00C291D
:103200001FD01029EBD190F842300FE090F83E30FB
:10321000012B19D0012032E090F83F30012BF9D179
:10322000022380F83F3012E090F84030013B18BF95
:103230000123002BEED10829D7D1022380F840309A
:1032400005E090F84130F1E7022380F83E30006855
:103250000122FFF7AFFF1B4B984203D003F58063B9
:10326000984213D1436C43F4004343648268164B85
:103270001340062B02D0B3F5803F1DD1002008BDBE
:1032800080F84130E3E780F84230E0E7B0F1804F6A
:10329000ECD00E4B9842E9D003F580639842E5D01C
:1032A00003F580639842E1D003F59A339842DDD06C
:1032B000A3F594339842D9D0036843F00103036027
:1032C000DCE700BF000001400700010000040040EF
:1032D0007047000038B50446C0692169A2682368B8
:1032E0000A4361691D680A436F4902432940256A00
:1032F0000A43E1681A605A6822F440520A435A604D
:10330000A26999682A4321F430610A439A60674AA6
:10331000934213D1664BD3F8903003F00303022B92
:1033200000F0A680032B00F09D80012B68D0B0F543
:10333000004F00F09180FFF7FFFA12E05D4A9342E0
:1033400027D15B4BD3F8903003F00C03082B00F02F
:103350008F8017D8002B53D1B0F5004F77D0FFF7EF
:10336000DBFA002876D0626800EB5203B3FBF2F37D
:103370009BB24FF6EF72A3F11001914204D822687C
:10338000D36067E00C2B6DD001200023C4E9193312
:1033900038BD494A934209D1454BD3F8903003F0E8
:1033A0003003202B64D0D5D9302BECE7434A93422D
:1033B00009D13F4BD3F8903003F0C003802B57D096
:1033C000C8D9C02BDFE73E4A93420BD1384BD3F824
:1033D000903003F44073B3F5007F49D0BAD9B3F508
:1033E000407FD0E7374A934213D1314BD3F8903026
:1033F00003F44063B3F5006F3AD007D8002B96D0A2
:10340000B0F5004F2BD1FFF7BBF922E0B3F5406FC9
:10341000B9E72D4A93420BD1254BD3F8903003F4F2
:103420004053B3F5005F23D094D9B3F5405FAAE7CA
:10343000264A9342A8D11E4BD3F8903003F4404360
:10344000B3F5004F14D085D9B3F5404F9BE7FFF794
:1034500063FA90B9002098E7FFF76EFAF9E7FFF7F3
:103460008FF97EE7B0F5004F07D04FF400407AE7C0
:10347000B0F5004F16487FF476AF62684FF6EF71F3
:10348000530803EB4003B3FBF2F39AB2A2F110002E
:1034900088423FF679AF23F00F03C2F3420221685E
:1034A0009BB21343CB60D5E7F369FFEF00100140F7
:1034B000003802400044004000480040004C0040FA
:1034C000005000400014014000780040007C0040A3
:1034D0000024F400436ADA0710B506D50168846A4F
:1034E0004A6822F4003222434A609C0706D50168EC
:1034F000C46A4A6822F4803222434A60590706D5DA
:103500000168046B4A6822F4802222434A601A0749
:1035100006D50168446B4A6822F4004222434A609F
:10352000DC0606D50168846B8A6822F48052224347
:103530008A60990606D50168C46B8A6822F4005235
:1035400022438A605A0610D50168046C4A68B4F5B3
:10355000801F22F4801242EA04024A6005D14A68C0
:10356000446C22F4C00222434A601B0606D502685E
:10357000816C536823F400230B43536010BD2DE985
:10358000F843DDF8209005460F46164698462A680F
:10359000D36937EA03030CBF01230023B34201D0F0
:1035A00000201BE0B9F1FF3FF2D0FDF79FFCA0EB3C
:1035B00008002C684845236802D8B9F1000F0FD1E4
:1035C00023F4D0732360A36823F00103A3602023B6
:1035D000AB67EB670023032085F87430BDE8F88300
:1035E0005A07D4D5E3691B05D1D54FF40063236294
:1035F000236823F4D0732360A36823F00103A3603E
:103600002023AB67EB67C5F88030E3E773B500268E
:103610000446C0F88060FDF769FC236805461B6816
:103620001A0716D423681B685B070AD56FF07E4320
:1036300000224FF48001204600932B46FFF79FFFA6
:1036400098B920230020A36784F87400E3672066FC
:103650000CE06FF07E4332464FF4001100930346B6
:103660002046FFF78CFF0028DCD0032002B070BD9D
:1036700010B5044640B3836F1BB980F87430FFF770
:1036800027FE226824232046A367136823F0010342
:103690001360FFF71FFE012816D0636A13B120469E
:1036A000FFF718FF236820465A6822F490425A60B8
:1036B0009A6822F02A029A601A6842F00102BDE874
:1036C00010401A60FFF7A2BF012010BD036801225D
:1036D00000211B691847036800221B69114618471F
:1036E0006FF01500704780F834130020704780F8A1
:1036F00050120020704790F83403704790F8500241
:10370000704700207047012070476FF01C00704721
:103710000A4B10B5036048330446C0F8E430D0F8D3
:10372000380310B103685B68984704F5407002F0F5
:103730009FFC204600F06EFC204610BD1C9220002D
:10374000A0F1E400FFF7E4BF10B50446FFF7E0FF87
:103750004FF44F71204602F0D4FB204610BDA0F17B
:10376000E400FFF7F1BF10B40168D0E90132541052
:1037700001EB6200D20748BF0A595DF8044B48BF0D
:10378000D358184700207047012070476FF01C0085
:103790007047D0F8380308B520B100F0F9FA0038C6
:1037A00018BF012008BD30B587B00025044602AB24
:1037B000CDE900550ECB00F0E7FB84F8365307B097
:1037C00030BD30B5012387B000250446CDE9005354
:1037D00002AB0ECB00F0D8FB84F8355307B030BDF8
:1037E00010B5044601F0B2FED4E940239A420ABF64
:1037F00094F80841002484F0010401F0BDFE204645
:1038000010BD38B5044600F5407504F5FA74284635
:1038100002F02FFC2046FFF7E3FF20B1284602F01C
:1038200029FC002038BD284602F024FC012002F0CB
:10383000CAFB284602F01DFCECE7A0F1E400FFF70C
:10384000E0BF38B50546E830FFF7CAFF80F0010455
:103850002846E4B2FFF79DFF18B144F40054204617
:1038600038BD95F8FC32002BF9D144F01004F6E78E
:10387000A0F1E400FFF7E5BF38B504460D4601F0BE
:1038800065FED4F800312A78E2540133B3F5807F25
:1038900005D94FF4AF720C490C4801F08FFD08BFF9
:1038A000002394F80821C4F800312AB1C4F8043187
:1038B000BDE8384001F060BED4F804219A4204BF4C
:1038C000012384F80831F3E7DF872000F087200028
:1038D00070B504460E4601F039FED4E940239A4201
:1038E00002D194F80851BDB1E35C3370D4F80431CF
:1038F0000133B3F5807F05D94FF4AF720849094809
:1039000001F05CFD4FF000024FF0010508BF1346C7
:1039100084F80821C4F8043101F02EFE284670BD59
:10392000DF872000F0872000C36810B52BB94FF463
:10393000FD720349034801F041FDBDE810401847FE
:10394000558820006088200084B070B5064605AC1C
:1039500006F5497584E80E0001F0F8FD94E80F00C3
:1039600085E80F00D6F8303343B147F6FF71304693
:10397000FFF767FF10B12846FFF7D6FFBDE870409C
:1039800004B001F0F9BDA0F1E400FFF7DDBF08B518
:10399000D0F830331BB100F54970FFF7C5FF08BD03
:1039A00073B500F1E80504462846FFF719FF0646FF
:1039B00094F8F03173B9204600F0C4FA50B12046B3
:1039C00000F05AFB0DF107018DF807002846FFF7BC
:1039D00053FFEDE794F836332BB194F8F03113B17F
:1039E0002046FFF7E0FE4EB12846FFF7F9FE28B962
:1039F000204602B0BDE87040FFF7C9BF02B070BDFD
:103A000010B5044686B001F0A1FD94F8BC30BBB1FE
:103A100094F83633A3B92046FFF7C2FF94F8F0318B
:103A200073B90A4A204601930294CDE90323084B57
:103A3000009302AB0ECB00F0A7FA012384F83633D3
:103A400006B0BDE8104001F097BD00BFA1392000CD
:103A50006737200038B5044600F030FA0F4B0025D8
:103A600004F540702360483384F8F051C4F8E43022
:103A700084F8FC52C4E97A55C4E9BD5502F0F7FA5E
:103A800001232046C4F83053A4F8343384F8365365
:103A9000C4F83853FFF7B4FF204638BD1C9220000D
:103AA0002DE9F0470646894615469AB300F540775A
:103AB00006F1E808384602F0DCFA4046FFF790FECF
:103AC0000446A0B9404609EB040AFFF789FE30B965
:103AD000013451464046FFF7FBFEA542F2D1304685
:103AE000FFF78EFF384602F0C5FA204607E096F849
:103AF000343338462BB902F0BDFA6FF00A00BDE846
:103B0000F08702F0B7FA012002F05DFA384602F0C1
:103B1000B0FAD2E71046F2E7A0F1E400FFF7C0BF29
:103B200070B500F5407604460D46304602F0A1FA25
:103B30002946204600F0B3FA2046FFF761FF3046E1
:103B400002F098FA002070BDA0F1E400FFF7E8BF92
:103B500073B5044690F8FC5200F5FA76204600F062
:103B600002FA58B10DF107013046FFF7B1FE28B156
:103B70009DF80710204600F082FAEFE794F83533FD
:103B80003BB104F5FA70FFF72BFE10B12046FFF7AA
:103B900018FE65B194F8FC324BB92046FFF7F9FDE9
:103BA00028B9204602B0BDE87040FFF7F0BE02B071
:103BB00070BDF8B505460C46164600F5FA7738464E
:103BC000FFF70EFE20B1A719BC4205D13046F8BD63
:103BD0002846FFF7BDFFF2E714F8011B284600F066
:103BE0004EFAF1E730B5044687B001F0AFFC94F827
:103BF000BD30CBB194F83533B3B92046FFF7A8FFF9
:103C000004F5FA70FFF7ECFD70B90A4B0125029438
:103C10000195CDE90330084B2046009302AB0ECB53
:103C200000F0B2F984F8355307B0BDE8304001F038
:103C3000A3BC00BF513B2000673720002DE9F047AF
:103C400006460F461546002A43D001F07CFC044688
:103C500030B12A4639463046BDE8F047FFF7A9BFE4
:103C600006F5407806F5FA79404602F002FA96F831
:103C7000FC3273B9A7EB040AA5420AEB040719D971
:103C800096F8FC32B3B9394648460134FFF7F4FDE3
:103C9000F2E796F8343393B1404602F0EBF9012095
:103CA00002F091F9404602F0E4F996F8FC32002B5C
:103CB000F2D1DFE73046FFF795FFA542D7D840465F
:103CC00002F0D8F9002C14BF20466FF00A00BDE8BE
:103CD000F0871046FBE7A0F1E400FFF7AFBF70B537
:103CE00000F5407604460D46304602F0C2F92946FA
:103CF000204600F01FFA2046FFF774FF304602F01E
:103D0000B9F9002070BDA0F1E400FFF7E8BF0000A2
:103D1000044B10B5044640F8203BFDF7A5F82046BB
:103D200010BD00BFB492200010B50446FFF7F0FFAD
:103D30005021204602F0E5F8204610BD0346024A15
:103D40002030FCF797BF00BFDB3D200070B50F4B64
:103D5000054604460E4645F8043B1C220021284631
:103D600003F0C6FB1022002104F1200003F0C0FB89
:103D7000002331462046E363E364FFF7DFFF284674
:103D8000314600F0ADFA204670BD00BFB49220006D
:103D9000836840681B681840003818BF01207047CE
:103DA00084B070B505AD044685E80E0001F0CEFB89
:103DB000089A04F1200672B1303495E80F0084E8C7
:103DC0000F00012230460121FCF7E6FEBDE87040FD
:103DD00004B001F0D1BBE263F4E7012908B502D0D9
:103DE000022907D008BDC36B002BFBD03030FFF792
:103DF0009BFDF7E7C36C002BF4D04030F7E70000E1
:103E000003460144002010B5074C8B4200D110BD81
:103E100013F8012B80EA02600822400028BF6040AE
:103E2000013AFAD1F1E700BFB71DC10470474268FB
:103E300010B48AB1D0E9033404F0010123B959B1B7
:103E400061105158CB5801E00029F9D1816802EB8B
:103E500064005DF8044B18475DF8044B70470000A0
:103E600070B500F14C050446D0F8C410284600F0A7
:103E7000A3FCD4F8D82092B1D4F8C8301BB9D4F838
:103E8000CC30D8070BD5D4E937314E1004EB6100A4
:103E9000C90744BFA159CB5894F8D0109847D4F81B
:103EA000B8102846FDF7C4FC224628460249BDE862
:103EB0007040FCF795BB00BF8D402000F8B51E4B4D
:103EC000002517464C22036004461C4B0E468560B5
:103ED000294643601A4B8584C36045634564A0F856
:103EE00048500061C0E90555C0E90755104403F08A
:103EF000FFFA40F20113C4F8A4502046A4F8BC30E5
:103F0000C4F8CC5084F8D050C4F8E050C4E92D5720
:103F1000B388A4F8BE30B389A4F8C0304FF6FF735D
:103F2000C4E93165A4F8D230A4F8D430C4E93655D8
:103F3000FFF796FF2046F8BDC4922000613E2000A6
:103F40002F3E200038B50546044655F84C3B1B680B
:103F500098472846FDF71CFC2368054620465B6809
:103F60009847284638BD38B50546044655F84C3BB9
:103F70001B6898472846FDF71BFC2368054620462A
:103F80005B689847284638BD84B02DE9F04709AEF4
:103F900005469DF8347086E80E0003683C011B68F6
:103FA000984795F8BC3003B18FB195F8BD300BB18F
:103FB000012F0CD02C4496E80F00983484E80F00B1
:103FC0002B682846BDE8F0475B6804B0184704F149
:103FD000980801F0BBFA0C9A05F14C09A844D8F8EE
:103FE0000C3082B10BB901F027FD2C4496E80F008C
:103FF000983484E80F00012239464846FCF7FCFA61
:1040000001F0BAFADCE70BB101F02CFD0022C8F890
:104010000C20F1E770B586B0114B0026044602ADC6
:104020000360CDE9006695E80E00FFF7ADFF0123C0
:104030002046CDE9006395E80E00FFF7A5FF94F850
:10404000BC3013B994F8BD301BB104F14C00FDF73E
:10405000D9FA206A08B101F01DF8204606B070BDFB
:10406000C492200010B50446FFF7D4FFE421204697
:1040700001F047FF204610BD4C30FCF743BB10B5A4
:104080000C464C30FCF774FB204610BD00EB0110D1
:10409000983008B5C3680BB1FFF746FC08BD03684C
:1040A00070B504461B680D46984794F8BC30AB4287
:1040B00017D0E5B901F04AFA2A46294604F14C0026
:1040C000FCF79AFAD4F8A4308BBB01F055FA84F8C7
:1040D000BC5035B994F8BD301BB904F14C00FDF764
:1040E00091FA236820465B68BDE87040184794F851
:1040F000BD304BB9D4E90132511004EB6200D20754
:1041000044BF6258D358984701F020FAD4F8A4303D
:10411000002BDAD004F19800FFF706FC01F08CFCCC
:104120000122002104F14C00FCF766FACDE701F012
:1041300099FCCAE7036870B504461B680D469847AA
:1041400094F8BD30AB4217D0E5B901F0FFF92A462B
:10415000012104F14C00FCF74FFAD4F8B4308BBBCA
:1041600001F00AFA84F8BD5035B994F8BC301BB997
:1041700004F14C00FDF746FA236820465B68BDE871
:104180007040184794F8BC304BB9D4E90132511053
:1041900004EB6200D20744BF6258D358984701F03D
:1041A000D5F9D4F8B430002BDAD004F1A800FFF729
:1041B000BBFB01F041FC012204F14C001146FCF76D
:1041C0001BFACDE701F04EFCCAE703681B681847ED
:1041D00010B5084B04460022084623600023A16165
:1041E0000549C4E902230023C4E9043300F056FA68
:1041F000204610BDDC922000CB41200007B500F125
:1042000008010090806900F086FA03B05DF804FBB5
:1042100000F10801806900F098BA0000EFF3108304
:1042200072B6054A117831B9DB43044903F0010342
:104230000B70012313707047600C0020610C00208C
:1042400008B5EFF31083DB4313F0010304D03622EB
:104250000549064801F0B2F8054A1370054B1B7872
:1042600003B162B608BD00BFB0882000CC88200032
:10427000600C0020610C0020014B1878704700BFD3
:10428000600C002070B50E4604461546FCF7F0FBA6
:10429000013609D020460021FCF70EFC29462046B5
:1042A000BDE87040FCF704BC70BDF8B50F4604468D
:1042B00015461E46FCF7DCFB013710D020685EB1C6
:1042C000A368186001212046FCF7F6FB294620462A
:1042D000BDE8F840FCF7ECBBE3680004F1E7F8BD8B
:1042E0000022FFF7CFBF13460022FFF7DEBF0022F8
:1042F000FFF7F9BF00487047E0922000024B1B68AF
:104300000BB102481847704704030020E0922000D8
:1043100007B5024608468A420AD0531C08D001302D
:1043200005D0002304490548009301F089FA10469E
:1043300003B05DF804FB00BFE68820003001018077
:10434000B1F900305A1C01D118467047834201D19F
:10435000486870470C31F3E7421C13B504460AD095
:10436000FFF7EEFF431C06D1002322460349044811
:10437000009301F065FA02B010BD00BFF78820007D
:1043800030010180B1F900305A1C01D11846704744
:10439000834201D1886870470C31F3E72DE9F04181
:1043A000456895F832706FBB03685B6898472C6A64
:1043B000844227D0041B2B69A9681C4095F934203E
:1043C0002862A1FB0441B2B16E6A361941F10001C5
:1043D000002A19DBC2F12000A2F1200326FA02F420
:1043E00001FA00F021FA03F3D14004431C4304FA1C
:1043F00002F2B21A6A62D5E90A321B1941EB0201D4
:10440000C5E90A31BDE8F081D5F80C8030463B465D
:10441000424603F043FD08FB106604466E62EAE77D
:10442000824206D98A420BD9884294BF00200120DB
:104430007047884206D98A428CBF0020012070470D
:1044400001207047002070472DE9F041466805467D
:10445000336B23F07F4828F0FF08B8F1000F5CD1E0
:10446000FFF79CFF7368002B59D0D3E90003D6E90E
:104470000A1281429A4104D32B68BDE8F0415B697E
:1044800018476C68D4E90A12401A63EB020CE3691E
:10449000D4E90572824273EB0C031FD3E368A3FBDC
:1044A000000103FB0C1194F93330A3B1A26802F1AF
:1044B000FF3C1CEB000041F10001002B1BDBC3F1B2
:1044C000200CA3F12002D84001FA0CFC21FA02F2E0
:1044D00040EA0C001043874228BF0746236A1F4466
:1044E00023691F40336ABB4209D140F2C912114906
:1044F000114800F063FF434603F0D0FCEBE72B6864
:1045000038461B6998472B685B6898473A460146CE
:10451000306AFFF785FF0028AED1BDE8F0817369EE
:10452000306A326918442B6810401B69BDE8F041BD
:10453000184700BF5B8920006D8920004368F7B5EC
:1045400093F830200446002A77D193F83230002BBC
:1045500073D103681B6898472368DB699847036831
:104560002BB91A4636493748009301F069F91E46BF
:10457000354A1146B6FBF2F201FB12620E46002AE2
:10458000F7D1314A01266568B2FBF1FC1F22C5F85C
:1045900008C0013A03D306FA02F7BC45F9D185F801
:1045A0003320B3FBF1F21F230121EA6001FA03F685
:1045B000B24201D0013BF9D285F834304168081F7E
:1045C0001C2805D90023214921481A460093CCE72D
:1045D00020294FF007074FF0000618BF012307FA04
:1045E00000F70CBF4FF0FF338B406F6118BF03F132
:1045F000FF33501E46F1FF312B613346E7FB0C01C0
:1046000003F04CFC2368C5E906015B68C5E9006658
:104610009847636828620021012200205E621A86A2
:1046200083F83260C3E90A012046FFF7B7FE20464F
:1046300003B0BDE8F040FFF707BF03B0F0BD00BF17
:10464000918920000E01048040420F00AA892000B9
:1046500005010480F3B4069C002745688C606C68F3
:10466000C1E9002334B9CC607FB9696002B0F0BC05
:10467000FFF7EABE666801962668B242019E73EBB8
:104680000606F0D32746E468ECE7F960D5E90A416D
:1046900094429941EAD202B0F0BC704738B5054661
:1046A0000C46FFF74BFF00F051FF6B681C60BDE844
:1046B000384000F061BF70B5054600F047FFD5E90E
:1046C0000034DB68984794F832301BB1BDE8704085
:1046D00000F052BF012384F831306368A3B128464B
:1046E000FFF75CFE6368D4E90A62D3E90001864201
:1046F0008A4109D36A68DB68526863602368002BCB
:10470000EBD090689847E8E70023284684F83130DA
:10471000FFF79AFEDAE72DE9F34104460D46174606
:104720001E46DDF8208000F011FF2046FFF736FE20
:104730003A46334629462046CDF80080FFF78AFFE7
:1047400002B0BDE8F04100F017BF38B505460C4691
:1047500000F0FCFE6A685368A34209D1DB68284672
:104760005360FFF771FEBDE8384000F005BF134607
:10477000002BF8D0DA68A242F9D1E268DA60F2E7F9
:1047800038B50446FFF7DAFE00F0E0FE2046FFF7FA
:1047900005FE6368D3E90A4500F0EEFE204629468F
:1047A00038BD7047024B1B680BB102481847704771
:1047B000080300200C932000B1F90C20B1F904107B
:1047C000FDF77AB8102300F007B8202300F004B8F2
:1047D000302300F001B840239C46F0B404AE754687
:1047E000E80801D3EFF309860E4F0FCE0FC70FBCB9
:1047F0000FC74046494652465B460FC71DCE3100A3
:10480000A60A00D304316E0900D248311FC7EFF366
:1048100009806946EFF3148663C76046014900F0DA
:1048200077F800BFF8010020F0B52B4E85B00024CA
:1048300035462146013456F8042B284800F06AFE1C
:104840000D2CF6D1AB6C264C02936B6C2548019372
:104850002B6C0093696BD5E90E2300F05BFE216899
:10486000214800F057FEE16AA26AA36AA06AD2B2A8
:10487000266BC3F30723E76B000CCDE901670090BB
:104880001A4800F047FEA36A1E0603D5616B18485C
:1048900000F040FEA36A180403D5A16B154800F090
:1048A00039FEEB6C190712D5134800F033FE2B6D5F
:1048B000DA070FD5114800F02DFEEB6C5B074CBFFB
:1048C0000F48104805B0BDE8F04000F023BE0E4888
:1048D00000F020FE0D48EEE7F8010020E6892000F8
:1048E00000ED00E0F4892000438A2000518A200076
:1048F000A08A2000AE8A2000BC8A2000CB8A20003B
:10490000FB8A2000078B2000EB8A2000D88A200039
:1049100007B504460D461A48012100F075FD68BB35
:10492000184800F0F7FD302C19D0402C1CD0202C5A
:104930001FD1154C154800F0EDFD154800F0EAFDBB
:10494000FFF772FF134800F0E5FD0D4B00221A70CF
:1049500000232A4610492046009300F071FF0F48BB
:104960000F4C00F0D7FDE8E70E480F4C00F0D2FDE9
:10497000E3E70E480E4C00F0CDFDDEE70024E7E74C
:104980006D0D0020138B20003E01FF803C8B20002A
:10499000698B2000748B2000938B20004B8B2000B0
:1049A0003F01FF80548B20004001FF805F8B20007F
:1049B0003D01FF8070B505461446184613686FF038
:1049C00000420E460499934205D229B102F002FC3E
:1049D000431C05D1206070BD15B1B34238BFE85407
:1049E000236801332360F6E72DE9F04F8DB091463F
:1049F000182207469DF8683088460DEB020000211A
:104A00009DF860A00293DDE9164602F071FD029B5D
:104A1000002B0CBF20233023BAF1010F049325D1C2
:104A2000002E54DA6442D34666EB460606AB0025F8
:104A30000393AAF10203DBB20593059B012B49D82E
:104A4000BAF1020F04F00F034FEA14140CBF364AF8
:104A5000364A44EA06743609D25C039B013503F8F2
:104A6000012B039354EA0603E7D10CE0AAF10403F7
:104A7000D3F1000B4BEB030B54EA0603D6D13023E2
:104A800001258DF81830BBF1000F48D0029B3BB1D7
:104A90001B9B4A464146384600932D23FFF78AFF69
:104AA0000135199B9D4205DA199BAB421DDCBBF118
:104AB000000F0AD0029B3BB91B9B4A464146384631
:104AC00000932D23FFF776FF013D06AC22E04FF067
:104AD000000BD1E7204631460A22002303F0DEF91D
:104AE000303204460E46D2B2B7E71B9B4A464146D7
:104AF00038460093049BFFF75DFF199B013B199318
:104B0000D2E71B9A013D414638462B5D00924A464A
:104B1000FFF750FF002DF4D10DB0BDE8F08F199BC9
:104B20009D42C1DBD1E700BF77932000679320004F
:104B30002DE9F04F1C4695B0002383460D46924662
:104B40001393CAB1994217DB0CBF012301F1FF3562
:104B50004FF000080D931AF808308BB9BBF1000F25
:104B60000AD00D9B43B9139BAB4295BF0D9A0D9B89
:104B70000BF803200BF80530139815B0BDE8F08F43
:104B8000252B40F04F8208F101031AF80320203A48
:104B9000D2B20D2A07D842F6090121FA02F2D20751
:104BA00048BF08F102031AF803202A2A1CD14FF04B
:104BB000000901330434CDF81C901AF803100AEBF5
:104BC00003022E2940F0E58051782A2929D00026B9
:104BD0000A275378501C303BD9B2092940F2D580BE
:104BE000CAF1010313441FE0302A13D101331AF82C
:104BF0000320302AFAD0012253444FF000090792D3
:104C0000194611F8012B303AD0B2092804D9A3EB88
:104C10000A03D2E70022EFE70A2303FB09290B4628
:104C2000EEE7023354F8046B1AF80320682A40F0C8
:104C3000B3800AEB03025278682A00F0BD801C2280
:104C4000AF498A5C02F00F01CB181AF803700B937E
:104C5000692F00F2ED80572F00F2BF80A7F14603C5
:104C6000012B00F2EA80073424F00704B4EC027B45
:104C700051EC170B8DED0E7B03F028F90A9106908D
:104C8000099103F005F802460B46DDE90E0102F03A
:104C900075FE0B460246CDE910236FF000439E429D
:104CA00000F02C81002E00F05281012200230C9292
:104CB0000A2208939E4200F327810C98089902F07B
:104CC000E7FFDDE9102302F02BFD002207468846AE
:104CD0000023DDE90E0103F069F81090002800F0D0
:104CE0001D8143463A460020864902F047FE03F004
:104CF000EDF80C9B884607469842089B994108DBD3
:104D0000069B0027013B06930A9B63F1000309936E
:104D1000B846731CA9EB03099DED0E7B29EAE979DE
:104D20008DED107B069B099A134340F01E810022F3
:104D30000023DDE9100103F039F8002800F01581A7
:104D40001E9B00220593079BCDE903930423029346
:104D50000023CDE9002313AA29465846FFF744FE55
:104D6000002E00F02E811E9B13AA29465846009360
:104D70002E23FFF71FFE1E9B05930123CDE903633E
:104D80000023CDE9007802939CE007FB063602463B
:104D90001FE76FF0004647E76C2A06D10AEB0302D3
:104DA00052786C2A0AD020224AE74C3AD2B22E2AF4
:104DB0007FF646AF002245E7722243E7822241E7B1
:104DC000082B3AD8DFE813F012013900390001014D
:104DD00039006A00390039006A00A7F15803112B25
:104DE0002BD801A151F823F09D4E20003B4E20000E
:104DF0003B4E20003B4E20003B4E20003B4E20000F
:104E00003B4E20003B4E20003B4E20003B4E2000FE
:104E10003B4E2000B14F2000574E20003B4E20005B
:104E2000674C2000674C20003B4E2000574E20006E
:104E3000A7F17003D9B20829C2D91E9B13AA29462B
:104E4000584600932523FFF7B5FD0B9B252F18BF70
:104E500043460B93B5E0822A10D1073424F00703B0
:104E60001C465B6854F8082B1E990092059107991F
:104E7000CDE9039101210291019323E0112A54F815
:104E8000043B07D0722A13BF1A465AB243F3C01329
:104E9000D317E9E71AB243F3C033E5E7822A17D103
:104EA000073424F007021446526854F8083B1E9950
:104EB000752F05910799CDE9039119D10021029130
:104EC000CDE9003213AA29465846FFF78DFD78E058
:104ED000512A54F8043B09D0722A03D0112A03D076
:104EE0000022E4E7DBB2FBE79BB2F9E7DA17DEE783
:104EF000582F01D10321E2E70221E0E70626D4E69C
:104F0000389320000000E03F089901330C9851438A
:104F1000A0FB020739440C900891CBE6464B0022D7
:104F20003846414602F02CFD02F0D0FF0C9B88462B
:104F300007469842089B9941FFF6EBAE069B109FEF
:104F4000013306930A9B43F100030993E0E6002234
:104F5000394B02F049FFA0B1069B013306930A9B2F
:104F600043F1000309933746B0461E9B0593079B08
:104F7000CDE9039301230293069B0093099B0193C0
:104F8000E9E600222D4BDDE9100102F00FFF60B1D0
:104F9000069B5F1E0A9B63F1000857EA08033FF473
:104FA000CFAE0697CDF82480DDE73746B046B9E6A8
:104FB0001E9A294614F8043B5846009213AAFFF79C
:104FC000F9FC0B9B03F10108C5E554F8047B3E4452
:104FD0003B78002BF5D0B742F3D01E9A29465846AD
:104FE0000137009213AAFFF7E5FCF1E71E9B13AA15
:104FF00054F8046B2946584600933023FFF7DAFC37
:105000001E9B13AA2946009358467823FFF7D2FC2B
:105010001E9B009605930023CDE9033303230293DF
:10502000F31729E71E9A29465846009213AAFFF75C
:10503000C1FCCDF82C80C4E70000E03F0000E0BFD9
:105040000FB41FB5084906AB0020096853F8042BBC
:105050008968039300916FF00041FFF769FD05B087
:105060005DF804EB04B070471C04002013B5002465
:105070000094FFF75DFD02B010BD07B513460A4668
:105080006FF0004100900020FFF752FD03B05DF883
:1050900004FB0000024B1B6803B11847704700BFB8
:1050A000D80C002010B5044600F050FA204610BD80
:1050B00010B5044600F060FA204610BD03680122D6
:1050C00000211B6970B504469847051E0DDB236857
:1050D0000222002120461B6998470646236829467C
:1050E000354600221B6920469847284670BD704708
:1050F000704700008E220249024808B500F05EF9B0
:10510000EC8B2000F98B200010B504460846FFF711
:1051100037FBC4E90001204610BD000010B504466D
:10512000FFF756F80A4B2046A16940F8203BFFF7ED
:10513000EBFF2046D4E90823C4E90A230022002318
:10514000C4E90C230023C4E90E3384F8403010BDB9
:105150009093200038B590F83F5004460DB1FFF70A
:10516000C9FFFFF755F894F84030A5872BB184F8B4
:105170004050BDE8384000F075BC38BD10B504465D
:1051800001F1300000F049F9C4E90001204610BDEA
:1051900010B504468969FFF7B7FF204610BDD0E976
:1051A0000C32013342F10002C0E90C32D0E90A327C
:1051B00013F57A7342F10002C0E90A327047D0E970
:1051C0000A2312F57A7243F10003FFF717B80000C3
:1051D00090F83C3010B504464BB1002380F83C30C9
:1051E00090F83E3013B9012380F83D3010BD90F89F
:1051F0003F30002BFAD0836B4FF080620133836322
:10520000034B5A60FFF7CBFF2046FFF7D8FFEDE7CF
:1052100000ED00E037B50D46044689696846FFF7A2
:1052200073FF00980199D5E90A32C01A61EB0201B7
:10523000B0F57A7F71F1000306D200220023C4E9A1
:105240000023204603B030BDB0F5FA6F71F10003C2
:1052500001D20122F2E700294FF47A724FF00003E5
:10526000D8BF002102F01AFEC4E90001E9E70000FE
:1052700091F83F30F7B505460C4613B991F83C60FC
:1052800026B1E5221149124800F098F86846FFF768
:10529000C1FF4FF47A71DDE90030A663A3FB017210
:1052A00001FB0022D4E90A16C91942EB0602C4E93F
:1052B0000A12D4E90C125B1842EB00022846C4E93A
:1052C0000C32C5E9003203B0F0BD00BFEC8B20000A
:1052D000038C20002DE9F3411E4690F83F30044630
:1052E0001546174623B158223049314800F066F878
:1052F00090F83C305BB901466846FFF7B9FF009B68
:10530000AB42019BB34105D3012384F83D3002B089
:10531000BDE8F08121466846FFF730FF4FF47A730D
:10532000A5FB035803FB0688D4E90832DDE9000138
:10533000ED184FF0010348EB020894F84020A387D2
:105340007AB9A2693F1A126866EB010692F820202A
:1053500032BB84F8403000F06FFB052F76F1000679
:105360000DD2002384F83E3094F8403023B9012355
:1053700084F8403000F060FB2A4643460AE094F887
:105380004030002BEDD10123B5F57A6284F83E3030
:1053900068F10003204602B0BDE8F041FEF72EBFE1
:1053A000052F76F10006DCD3EDE700BFEC8B200083
:1053B000F98B200001F006BD01F088BC07B50B4653
:1053C000009201460022014800F03AFA4401FF80B1
:1053D00003460122D3E84F0FC3E8412FC0B2002992
:1053E000F8D17047D0E85F3F5B18C0E8523F002A11
:1053F000F8D198B27047D0E85F3F5B1AC0E8523FDF
:10540000002AF8D198B270470346D3E84F0FC3E89B
:10541000421FC0B2002AF8D1704738B5044600F0E8
:1054200095F8D4E9004500F0A7F82046294638BD94
:1054300000B589B000F08AF8102101A8FEF757FFE7
:105440000424039B019A0F481A6000F0C1FD019BE0
:10545000049A1B040B48136000F0BAFD013CF0D124
:105460000424039B019A08481A6000F0B1FD019BD7
:10547000049A1B040448136000F0AAFD013CF0D11B
:10548000DEE700BFF0490200801A060073B5002273
:1054900001460446022000F0E5FB0D2600F056F818
:1054A0000022254614F8013B23B902B0BDE8704044
:1054B00000F062B80A2B09D10D2A07D001220DF1A4
:1054C000070102208DF8076000F0CCFB012229467D
:1054D000022000F0C7FB14F8012CE2E700B5A3B0EE
:1054E00002460B46842101A8FFF7C0FD832806D998
:1054F000074B1A681B79CDF883208DF88730002878
:1055000002DD01A8FFF7C2FF23B05DF804FB00BF76
:10551000208C20000FB407B504A951F8040B0191A9
:10552000FFF7DCFF03B05DF804EB04B07047EFF366
:105530001080C04300F001007047EFF30580003891
:1055400018BF01207047FEF797BE000008B5FEF7B0
:1055500065FE064A1368591C04D13F2204490548D8
:10556000FFF72CFF0133136008BD00BFDC0C0020E7
:105570006E8C20007E8C2000044A136823B1013B0E
:1055800013600BB9FEF75CBE704700BFDC0C002057
:1055900008B50B48FFF71CFF28B1FFF7D7FFBFF393
:1055A0004F8F20BFFDE7FFF7C8FF08B1FFF740FFAF
:1055B000FFF7BDFF0028F9D0012000F07FFC00BFFD
:1055C0006C0D00202DE9F0412F4C0E468046174609
:1055D00021682E4801F0C043B3F1C04FC1F3074327
:1055E0000CBF4D428DB22A46FFF794FF6FF49873BB
:1055F0001D44132D0FD8DFE805F00A2D3033363C5B
:10560000393F0E0E0E0E0E0E0E0E0E0E0E42A1683D
:105610001F48FFF77FFF4046FFF738FF61681D48CE
:10562000FFF778FF4EB11C48FFF730FF3046FFF719
:105630002DFF39461948FFF76DFFA1681848FFF79D
:1056400069FF21681748FFF765FF1748BDE8F0417B
:10565000FFF760BFA1681548DBE7A1681448D8E7E9
:10566000A1681448D5E7A1681348D2E7A168134898
:10567000CFE7A1681248CCE7A1681248C9E71248F1
:10568000FFF748FFC7E700BFE80C0020AF8C200001
:10569000008D2000A88D2000B98D2000C18D200034
:1056A000C58D2000D98D2000288E2000168D200069
:1056B000268D2000358D2000488D20005C8D200037
:1056C000708D20007F8D2000958D20007047000098
:1056D00070B5264B90B00C46164610EA200538BF30
:1056E0001D463C22002101A801F002FF204B00953D
:1056F0002B440294012B02D91E4B9D422DD1E36B0A
:105700000193636B0793FFF721FF1B4A1368013373
:10571000012B13600BD16D46184C0FCD0FC40FCD6C
:105720000FC40FCD0FC495E80F0084E80F006C463E
:10573000134D0FCC0FC50FCC0FC50FCC0FC594E880
:105740000F0085E80F000F4BA5F130001B6853B127
:105750009847FFF711FF10B070BD0B4B9D42CED0A4
:105760006B460196CEE7FFF7B1FFF2E70101FF803C
:10577000C2FE007F4001FF80680D0020280D002040
:10578000E80C0020E40C00203D01FF800FB407B5B9
:1057900001210D487546FFF737FE044688B90146DA
:1057A0002A460A48FFF794FF224621460848FFF799
:1057B00009FF05A904980191FFF790FE0548FFF73E
:1057C00065FEFFF7E5FE00BF6D0D00200001FF80C4
:1057D000428E2000918B20007047000038B5164C97
:1057E000D4F88030002B25DA3C2104F18000FEF74C
:1057F00007FBD4F8BC3083421CD1D4F8B830CBB905
:105800000E4B012504F180001D70FFF7E5FFD4F871
:10581000B430002B0EDD3C2104F18000C4F8B850F8
:10582000FEF7EEFAD4F8B430C4F8BC00002B01DD6A
:10583000FFF7AEFE002038BDF8010020E00C00208C
:1058400080B506460C4630480121F04617461D46F5
:10585000FFF7DAFD48B9424639463046FFF738FFD0
:10586000029A29462046FFF7ADFE284E3C212848E3
:10587000FEF7C6FAD6F8BC30264D3C218342244CB4
:1058800028460ABFD6F8B430012301336B630023E6
:10589000AB63FEF7B5FAE863FFF758FE0FCD0FC410
:1058A0000FCD0FC40FCD0FC495E80F0084E80F0093
:1058B000303C04F01F0303F58073BFF34F8F164A8B
:1058C000203BC2F868422034002BF9DCBFF34F8F35
:1058D000BFF36F8FFFF750FE1048FFF71BFED6F89F
:1058E000B410002902DD0E48FFF714FEBFF34F8FFE
:1058F00009490C4BCA6802F4E0621343CB60BFF362
:105900004F8F00BFFDE700BF6D0D0020F8010020A4
:1059100078020020E80C002000ED00E0578E200007
:105920008A8E20000400FA0538B5064D286840B973
:10593000054CFEF7DFFC01462046FFF7EFFB204653
:105940002C6038BDB80D0020700D002008B58368AC
:1059500023B9054B1B6893F83D0008BDC068984704
:105960000028F6D0F9E700BFB80D0020F7B50446CF
:105970004FF0FF356FF00046164F2046FFF7E6FF69
:1059800030BBD4E90023B34208BFAA4202D0386832
:10599000FFF7A0FC01A8FFF785FB2046FFF7D6FF25
:1059A00098B9D4E90023B34208BFAA4207D100F056
:1059B0007DF801A8FFF77CFBBFF36F8FDDE73B6845
:1059C00093F83C30002BF2D1F3E701A8FFF770FB0E
:1059D00003B0F0BDB80D002070B50D4686B0164678
:1059E000044628B921B3104606B0BDE87040084708
:1059F000431C1AD0FFF798FF01466846FFF738FCB2
:105A0000009BE418019B43F10003CDE90243CDE97B
:105A10000456FFF789FF02A8FFF7A8FF054B186897
:105A200006B0BDE87040FFF795BB6FF00043ECE7B0
:105A300006B070BDB80D002013B5074C01212046FB
:105A4000FFF7D0FC034628B9009004492288044897
:105A5000FFF7F6FE02B010BDBC0D0020D48E200072
:105A60002301048013B5094C01212046FFF7C3FC34
:105A70004FF6FF73984206D100230549054800936D
:105A80002288FFF7DDFE02B010BD00BFBC0D002074
:105A9000F68E200024010480034B188880B2B0FAEF
:105AA00080F04009704700BFBC0D002008B5FFF72B
:105AB0004DFDFFF7F1FF28B1FCF7CCF8BDE8084039
:105AC000FFF75ABDFCF7B4F8F8E700207047002054
:105AD0007047012008B500F0F1F90000074A0849B5
